:100000000C942A000C9434000C9434000C943400AA
:100010000C9434000C9434000C9434000C94340090
:100020000C9434000C9434000C9434000C94340080
:100030000C9434000C9434000C9434000C94340070
:100040000C9434000C9434000C9434000C94340060
:100050000C94340011241FBECFE5D8E0DEBFCDBF25
:100060000E949C030C94A1030C940000DF93CF9397
:10007000CDB7DEB7EAE3F0E08FEF8083E7E3F0E0AF
:100080008FE08083E4E3F0E08FEF8083E1E3F0E052
:100090008FEF8083EBE3F0E01082E8E3F0E08FEF96
:1000A0008083E5E3F0E01082E2E3F0E01082CF919C
:1000B000DF910895DF93CF93CDB7DEB72D970FB6BD
:1000C000F894DEBF0FBECDBF89836A834B838981DD
:1000D000843008F000C18981282F30E03D872C87CB
:1000E0008C859D858130910509F44FC02C853D8517
:1000F000223031052CF48C859D85009771F0EBC082
:100100002C853D852230310509F477C08C859D858D
:100110008330910509F4A9C0DEC08B81282F30E01F
:100120003B872A878A859B850097D1F02A853B8566
:100130002130310509F0CFC0AAE3B0E0EAE3F0E0F6
:100140008081482F8A81282F30E081E090E0022EC4
:1001500002C0880F991F0A94E2F7842B8C93BBC0CE
:10016000AAE3B0E0EAE3F0E08081482F8A81282FFB
:1001700030E081E090E0022E02C0880F991F0A94BF
:10018000E2F7809584238C93A6C08B81282F30E0E2
:1001900039872887888599850097D1F02885398502
:1001A0002130310509F097C0A7E3B0E0E7E3F0E0C4
:1001B0008081482F8A81282F30E081E090E0022E54
:1001C00002C0880F991F0A94E2F7842B8C9383C096
:1001D000A7E3B0E0E7E3F0E08081482F8A81282F91
:1001E00030E081E090E0022E02C0880F991F0A944F
:1001F000E2F7809584238C936EC08B81282F30E0AA
:100200003F832E838E819F810097D1F02E813F8185
:100210002130310509F05FC0A4E3B0E0E4E3F0E091
:100220008081482F8A81282F30E081E090E0022EE3
:1002300002C0880F991F0A94E2F7842B8C934BC05D
:10024000A4E3B0E0E4E3F0E08081482F8A81282F26
:1002500030E081E090E0022E02C0880F991F0A94DE
:10026000E2F7809584238C9336C08B81282F30E071
:100270003D832C838C819D810097C9F02C813D8129
:100280002130310541F5A1E3B0E0E1E3F0E0808108
:10029000482F8A81282F30E081E090E0022E02C0B2
:1002A000880F991F0A94E2F7842B8C9314C0A1E362
:1002B000B0E0E1E3F0E08081482F8A81282F30E030
:1002C00081E090E0022E02C0880F991F0A94E2F7A5
:1002D000809584238C932D960FB6F894DEBF0FBEC5
:1002E000CDBFCF91DF910895DF93CF93CDB7DEB728
:1002F0002D970FB6F894DEBF0FBECDBF89836A83FA
:100300004B838981843008F004C18A81883008F0E9
:1003100000C18981282F30E03D872C878C859D8501
:100320008130910509F44FC02C853D85223031057F
:100330002CF48C859D85009771F0EBC02C853D8554
:100340002230310509F477C08C859D858330910575
:1003500009F4A9C0DEC08B81282F30E03B872A87B3
:100360008A859B850097D1F02A853B852130310510
:1003700009F0CFC0ABE3B0E0EBE3F0E08081482FC1
:100380008A81282F30E081E090E0022E02C0880FA1
:10039000991F0A94E2F7842B8C93BBC0ABE3B0E0C7
:1003A000EBE3F0E08081482F8A81282F30E081E064
:1003B00090E0022E02C0880F991F0A94E2F7809500
:1003C00084238C93A6C08B81282F30E0398728871F
:1003D000888599850097D1F02885398521303105A8
:1003E00009F097C0A8E3B0E0E8E3F0E08081482F8F
:1003F0008A81282F30E081E090E0022E02C0880F31
:10040000991F0A94E2F7842B8C9383C0A8E3B0E091
:10041000E8E3F0E08081482F8A81282F30E081E0F6
:1004200090E0022E02C0880F991F0A94E2F780958F
:1004300084238C936EC08B81282F30E03F832E83E2
:100440008E819F810097D1F02E813F81213031052F
:1004500009F05FC0A5E3B0E0E5E3F0E08081482F5C
:100460008A81282F30E081E090E0022E02C0880FC0
:10047000991F0A94E2F7842B8C934BC0A5E3B0E05C
:10048000E5E3F0E08081482F8A81282F30E081E089
:1004900090E0022E02C0880F991F0A94E2F780951F
:1004A00084238C9336C08B81282F30E03D832C83AE
:1004B0008C819D810097C9F02C813D8121303105CF
:1004C00041F5A2E3B0E0E2E3F0E08081482F8A81C9
:1004D000282F30E081E090E0022E02C0880F991FA3
:1004E0000A94E2F7842B8C9314C0A2E3B0E0E2E319
:1004F000F0E08081482F8A81282F30E081E090E071
:10050000022E02C0880F991F0A94E2F78095842377
:100510008C932D960FB6F894DEBF0FBECDBFCF9152
:10052000DF910895DF93CF9300D000D00F92CDB725
:10053000DEB78A836B8319828A81843008F06BC0AE
:100540008B81883008F067C08A81282F30E03D8396
:100550002C834C815D814130510541F18C819D811D
:100560008230910534F42C813D812115310561F0F3
:1005700052C04C815D814230510551F18C819D8189
:1005800083309105B9F147C0E9E3F0E08081282F7D
:1005900030E08B81882F90E0A90102C055954795E6
:1005A0008A95E2F7CA018170898335C0E6E3F0E0FD
:1005B0008081282F30E08B81882F90E0A90102C034
:1005C000559547958A95E2F7CA018170898323C0C2
:1005D000E3E3F0E08081282F30E08B81882F90E0EA
:1005E000A90102C0559547958A95E2F7CA01817025
:1005F000898311C0E0E3F0E08081282F30E08B8117
:10060000882F90E0A90102C0559547958A95E2F799
:10061000CA018170898389810F900F900F900F908C
:100620000F90CF91DF910895DF93CF9300D000D04A
:10063000CDB7DEB789836A838981843090F589815B
:10064000282F30E03C832B838B819C818130910566
:10065000D1F02B813C81223031052CF48B819C819F
:10066000009761F01EC02B813C812230310581F062
:100670008B819C818330910581F013C0EAE3F0E027
:100680008A8180830EC0E7E3F0E08A81808309C01D
:10069000E4E3F0E08A81808304C0E1E3F0E08A8152
:1006A00080830F900F900F900F90CF91DF9108955E
:1006B000DF93CF9300D000D0CDB7DEB789836A83B4
:1006C0008981843090F58981282F30E03C832B8309
:1006D0008B819C8181309105D1F02B813C8122302E
:1006E00031052CF48B819C81009761F01EC02B8119
:1006F0003C812230310581F08B819C8183309105D2
:1007000081F013C0EBE3F0E08A8180830EC0E8E360
:10071000F0E08A81808309C0E5E3F0E08A8180838C
:1007200004C0E2E3F0E08A8180830F900F900F9085
:100730000F90CF91DF910895DF93CF93CDB7DEB7C0
:06074000FFCFF894FFCF8B
:00000001FF
