:100000000C9434000C943E000C943E000C943E0082
:100010000C943E000C943E000C943E000C943E0068
:100020000C943E000C943E000C943E000C943E0058
:100030000C943E000C943E000C943E000C943E0048
:100040000C943E000C943E000C943E000C943E0038
:100050000C943E00A300A800AD00B200B700BC00A5
:10006000C100C600CB00D00011241FBECFE5D8E0F0
:10007000DEBFCDBF0E9470000C94DB000C9400002A
:100080008FEF8ABB9EEF97BB84BB81BB1BBA81E01D
:1000900088BB15BA12BA0895843078F4813041F0E3
:1000A00028F0823039F0833039F008956ABB089522
:1000B00067BB089564BB089561BB0895843078F4EC
:1000C000813041F028F0823039F0833039F00895E2
:1000D0006BBB089568BB089565BB089562BB089526
:1000E0000E9440000E948F002FEF84E39CE021508B
:1000F00080409040E1F700C00000C0E00DC08C2FB0
:100100000E9498002FEF84E39CE0215080409040B3
:10011000E1F700C00000CF5FCA3088F3EECF6FEF89
:1001200080E00E944C0067E080E00E945E0008953D
:100130008A30D0F590E08A309105B0F5FC01E65D9B
:10014000FF4F0C94D5006FE380E00E945E0008959D
:1001500066E080E00E945E0008956BE580E00E940A
:100160005E0008956FE480E00E945E00089566E6F8
:1001700080E00E945E0008956DE680E00E945E00CF
:1001800008956DE780E00E945E00089567E080E0DA
:100190000E945E0008956FE780E00E945E0008956F
:1001A0006FE680E00E945E000895EE0FFF1F05904D
:0A01B000F491E02D0994F894FFCFBC
:00000001FF
