:100000000C942A000C9434000C9434000C943400AA
:100010000C9434000C9434000C9434000C94340090
:100020000C9434000C9434000C9434000C94340080
:100030000C9434000C9434000C9434000C94340070
:100040000C9434000C9434000C9434000C94340060
:100050000C94340011241FBECFE5D8E0DEBFCDBF25
:100060000E9460000C9465000C940000DF93CF9315
:10007000CDB7DEB7AFE5B0E0EFE5F0E080818F7798
:100080008C93CF91DF910895DF93CF93CDB7DEB7F7
:10009000AFE5B0E0EFE5F0E0808180688C93CF9130
:1000A000DF910895DF93CF93CDB7DEB7AFE5B0E032
:1000B000EFE5F0E080818F778C93CF91DF91089509
:0E00C000DF93CF93CDB7DEB7FFCFF894FFCF1D
:00000001FF
