:100000000C942A000C943C000C943C000C943C0092
:100010000C943C000C943C000C943C000C943C0070
:100020000C943C000C943C000C941A040C94CE03E9
:100030000C943C000C943C000C943C000C943C0050
:100040000C943C000C943C000C943C000C943C0040
:100050000C943C0011241FBECFE5D8E0DEBFCDBF1D
:1000600010E0A0E6B0E001C01D92A836B107E1F7AC
:100070000E9409050C940E050C940000DF93CF93A9
:10008000CDB7DEB7EAE3F0E08FEF8083E7E3F0E09F
:100090008FE08083E4E3F0E08FEF8083E1E3F0E042
:1000A0008FEF8083EBE3F0E01082E8E3F0E08FEF86
:1000B0008083E5E3F0E01082E2E3F0E01082CF918C
:1000C000DF910895DF93CF93CDB7DEB72D970FB6AD
:1000D000F894DEBF0FBECDBF89836A834B838981CD
:1000E000843008F000C18981282F30E03D872C87BB
:1000F0008C859D858130910509F44FC02C853D8507
:10010000223031052CF48C859D85009771F0EBC071
:100110002C853D852230310509F477C08C859D857D
:100120008330910509F4A9C0DEC08B81282F30E00F
:100130003B872A878A859B850097D1F02A853B8556
:100140002130310509F0CFC0AAE3B0E0EAE3F0E0E6
:100150008081482F8A81282F30E081E090E0022EB4
:1001600002C0880F991F0A94E2F7842B8C93BBC0BE
:10017000AAE3B0E0EAE3F0E08081482F8A81282FEB
:1001800030E081E090E0022E02C0880F991F0A94AF
:10019000E2F7809584238C93A6C08B81282F30E0D2
:1001A00039872887888599850097D1F028853985F2
:1001B0002130310509F097C0A7E3B0E0E7E3F0E0B4
:1001C0008081482F8A81282F30E081E090E0022E44
:1001D00002C0880F991F0A94E2F7842B8C9383C086
:1001E000A7E3B0E0E7E3F0E08081482F8A81282F81
:1001F00030E081E090E0022E02C0880F991F0A943F
:10020000E2F7809584238C936EC08B81282F30E099
:100210003F832E838E819F810097D1F02E813F8175
:100220002130310509F05FC0A4E3B0E0E4E3F0E081
:100230008081482F8A81282F30E081E090E0022ED3
:1002400002C0880F991F0A94E2F7842B8C934BC04D
:10025000A4E3B0E0E4E3F0E08081482F8A81282F16
:1002600030E081E090E0022E02C0880F991F0A94CE
:10027000E2F7809584238C9336C08B81282F30E061
:100280003D832C838C819D810097C9F02C813D8119
:100290002130310541F5A1E3B0E0E1E3F0E08081F8
:1002A000482F8A81282F30E081E090E0022E02C0A2
:1002B000880F991F0A94E2F7842B8C9314C0A1E352
:1002C000B0E0E1E3F0E08081482F8A81282F30E020
:1002D00081E090E0022E02C0880F991F0A94E2F795
:1002E000809584238C932D960FB6F894DEBF0FBEB5
:1002F000CDBFCF91DF910895DF93CF93CDB7DEB718
:100300002D970FB6F894DEBF0FBECDBF89836A83E9
:100310004B838981843008F004C18A81883008F0D9
:1003200000C18981282F30E03D872C878C859D85F1
:100330008130910509F44FC02C853D85223031056F
:100340002CF48C859D85009771F0EBC02C853D8544
:100350002230310509F477C08C859D858330910565
:1003600009F4A9C0DEC08B81282F30E03B872A87A3
:100370008A859B850097D1F02A853B852130310500
:1003800009F0CFC0ABE3B0E0EBE3F0E08081482FB1
:100390008A81282F30E081E090E0022E02C0880F91
:1003A000991F0A94E2F7842B8C93BBC0ABE3B0E0B7
:1003B000EBE3F0E08081482F8A81282F30E081E054
:1003C00090E0022E02C0880F991F0A94E2F78095F0
:1003D00084238C93A6C08B81282F30E0398728870F
:1003E000888599850097D1F0288539852130310598
:1003F00009F097C0A8E3B0E0E8E3F0E08081482F7F
:100400008A81282F30E081E090E0022E02C0880F20
:10041000991F0A94E2F7842B8C9383C0A8E3B0E081
:10042000E8E3F0E08081482F8A81282F30E081E0E6
:1004300090E0022E02C0880F991F0A94E2F780957F
:1004400084238C936EC08B81282F30E03F832E83D2
:100450008E819F810097D1F02E813F81213031051F
:1004600009F05FC0A5E3B0E0E5E3F0E08081482F4C
:100470008A81282F30E081E090E0022E02C0880FB0
:10048000991F0A94E2F7842B8C934BC0A5E3B0E04C
:10049000E5E3F0E08081482F8A81282F30E081E079
:1004A00090E0022E02C0880F991F0A94E2F780950F
:1004B00084238C9336C08B81282F30E03D832C839E
:1004C0008C819D810097C9F02C813D8121303105BF
:1004D00041F5A2E3B0E0E2E3F0E08081482F8A81B9
:1004E000282F30E081E090E0022E02C0880F991F93
:1004F0000A94E2F7842B8C9314C0A2E3B0E0E2E309
:10050000F0E08081482F8A81282F30E081E090E060
:10051000022E02C0880F991F0A94E2F78095842367
:100520008C932D960FB6F894DEBF0FBECDBFCF9142
:10053000DF910895DF93CF9300D000D00F92CDB715
:10054000DEB78A836B8319828A81843008F06BC09E
:100550008B81883008F067C08A81282F30E03D8386
:100560002C834C815D814130510541F18C819D810D
:100570008230910534F42C813D812115310561F0E3
:1005800052C04C815D814230510551F18C819D8179
:1005900083309105B9F147C0E9E3F0E08081282F6D
:1005A00030E08B81882F90E0A90102C055954795D6
:1005B0008A95E2F7CA018170898335C0E6E3F0E0ED
:1005C0008081282F30E08B81882F90E0A90102C024
:1005D000559547958A95E2F7CA018170898323C0B2
:1005E000E3E3F0E08081282F30E08B81882F90E0DA
:1005F000A90102C0559547958A95E2F7CA01817015
:10060000898311C0E0E3F0E08081282F30E08B8106
:10061000882F90E0A90102C0559547958A95E2F789
:10062000CA018170898389810F900F900F900F907C
:100630000F90CF91DF910895DF93CF9300D000D03A
:10064000CDB7DEB789836A838981843090F589814B
:10065000282F30E03C832B838B819C818130910556
:10066000D1F02B813C81223031052CF48B819C818F
:10067000009761F01EC02B813C812230310581F052
:100680008B819C818330910581F013C0EAE3F0E017
:100690008A8180830EC0E7E3F0E08A81808309C00D
:1006A000E4E3F0E08A81808304C0E1E3F0E08A8142
:1006B00080830F900F900F900F90CF91DF9108954E
:1006C000DF93CF9300D000D0CDB7DEB789836A83A4
:1006D0008981843090F58981282F30E03C832B83F9
:1006E0008B819C8181309105D1F02B813C8122301E
:1006F00031052CF48B819C81009761F01EC02B8109
:100700003C812230310581F08B819C8183309105C1
:1007100081F013C0EBE3F0E08A8180830EC0E8E350
:10072000F0E08A81808309C0E5E3F0E08A8180837C
:1007300004C0E2E3F0E08A8180830F900F900F9075
:100740000F90CF91DF910895DF93CF93CDB7DEB7B0
:10075000AFE5B0E0EFE5F0E080818F778C93CF914B
:10076000DF910895DF93CF93CDB7DEB7AFE5B0E06B
:10077000EFE5F0E0808180688C93CF91DF91089560
:10078000DF93CF93CDB7DEB7AFE5B0E0EFE5F0E0B4
:1007900080818F778C93CF91DF9108951F920F9274
:1007A0000FB60F9211242F933F934F935F936F9344
:1007B0007F938F939F93AF93BF93EF93FF93DF93B9
:1007C000CF93CDB7DEB7809164009091650001961C
:1007D000909365008093640080916400909165001F
:1007E0002CE08931920799F4E2E5F0E080EC808317
:1007F00010926500109264008091600090916100F9
:10080000009729F0E0916000F09161000995CF9187
:10081000DF91FF91EF91BF91AF919F918F917F9168
:100820006F915F914F913F912F910F900FBE0F905D
:100830001F9018951F920F920FB60F9211242F93AD
:100840003F934F935F936F937F938F939F93AF9358
:10085000BF93EF93FF93DF93CF93CDB7DEB7809134
:100860006600909167000196909367008093660000
:10087000809166009091670027E28031920779F4B9
:100880001092670010926600809162009091630060
:10089000009729F0E0916200F09163000995CF91F3
:1008A000DF91FF91EF91BF91AF919F918F917F91D8
:1008B0006F915F914F913F912F910F900FBE0F90CD
:1008C0001F901895DF93CF93CDB7DEB7A3E5B0E0C7
:1008D000E3E5F0E0808188608C93A3E5B0E0E3E598
:1008E000F0E0808180648C93A3E5B0E0E3E5F0E084
:1008F00080818F7E8C93A3E5B0E0E3E5F0E080811A
:1009000080628C93A3E5B0E0E3E5F0E08081887F2E
:100910008C93A3E5B0E0E3E5F0E0808182608C9306
:10092000CF91DF910895DF93CF9300D0CDB7DEB79D
:100930009A83898389819A81909361008093600072
:100940000F900F90CF91DF910895DF93CF9300D058
:10095000CDB7DEB79A83898389819A8190936300AA
:10096000809362000F900F90CF91DF910895DF93F5
:10097000CF93CDB7DEB7AFE4B0E0EFE4F0E0808135
:1009800080688C93AFE4B0E0EFE4F0E080818F7B8F
:100990008C93AFE4B0E0EFE4F0E080818E7F8C9345
:1009A000AFE4B0E0EFE4F0E0808182608C93AEE4ED
:1009B000B0E0EEE4F0E0808188608C93AEE4B0E0DB
:1009C000EEE4F0E0808180618C93EAE4F0E08CED6D
:1009D00095E091838083E6E4F0E08FE19EE49183EB
:1009E0008083AEE4B0E0EEE4F0E080818E7F8C9313
:1009F000AEE4B0E0EEE4F0E0808182608C93AEE49F
:100A0000B0E0EEE4F0E080818B7F8C93CF91DF91BA
:100A10000895DF93CF93CDB7DEB7FFCFF894FFCF24
:00000001FF
