S0130000534552564F5F4D4F544F522E7372656392
S11300000C942A000C9434000C9434000C943400A6
S11300100C9434000C9434000C9434000C9434008C
S11300200C9434000C9434000C9434000C9434007C
S11300300C9434000C9434000C9434000C9434006C
S11300400C9434000C9434000C9434000C9434005C
S11300500C94340011241FBECFE5D8E0DEBFCDBF21
S11300600E9436000C945A020C9400000E94420034
S11300706FEF83E00E944F000E949F008AEB0E9472
S11300806100FFCF87EF8ABB80EF87BB8FEF84BB14
S113009081BB1BBA8FE088BB15BA12BA08958430AD
S11300A078F4813041F028F0823039F0833039F02F
S11300B008956ABB089567BB089564BB089561BB46
S11300C008959AE5980F953BC8F5682F1816B4F46F
S11300D0062E000C770B880B990B0E9461012CE112
S11300E037EC41EB50E40E94ED0120E030E84BEBAB
S11300F054E40E94C4000E9430011EC08823D4F43A
S1130100062E000C770B665A7F4F072E000C880BC7
S1130110990B0E9461012CE137EC41EB50E40E9401
S1130120ED0120E030E04AE754E40E94C4000E945C
S1130130300102C06CED75E07BBD6ABD08958FB5DA
S113014080688FBD8FB58F7B8FBD8FB58E7F8FBD40
S11301508FB582608FBD8EB588608EBD8EB580618F
S11301608EBD8CED95E09BBD8ABD8FE19EE497BD6D
S113017086BD8EB58E7F8EBD8EB582608EBD8EB5EA
S11301808B7F8EBD08955058BB27AA270E94DB00A1
S11301900C94B3010E94A50138F00E94AC0120F038
S11301A039F49F3F19F426F40C94A2010EF4E0955F
S11301B0E7FB0C949C01E92F0E94C40158F3BA1781
S11301C0620773078407950720F079F4A6F50C9469
S11301D0E6010EF4E0950B2EBA2FA02D0B01B90108
S11301E090010C01CA01A0011124FF27591B99F0A9
S11301F0593F50F4503E68F11A16F040A22F232FB5
S1130200342F4427585FF3CF469537952795A79504
S1130210F0405395C9F77EF41F16BA0B620B730BAB
S1130220840BBAF09150A1F0FF0FBB1F661F771F1C
S1130230881FC2F70EC0BA0F621F731F841F48F4D1
S1130240879577956795B795F7959E3F08F0B0CF5A
S11302509395880F08F09927EE0F97958795089541
S11302600E94CC0188F09F5798F0B92F9927B75175
S1130270B0F0E1F0660F771F881F991F1AF0BA9546
S1130280C9F714C0B13091F00E94E601B1E00895BD
S11302900C94E601672F782F8827B85F39F0B93FAF
S11302A0CCF3869577956795B395D9F73EF49095F9
S11302B08095709561957F4F8F4F9F4F0895E89477
S11302C009C097FB3EF490958095709561957F4F9A
S11302D08F4F9F4F9923A9F0F92F96E9BB27939548
S11302E0F695879577956795B795F111F8CFFAF458
S11302F0BB0F11F460FF1BC06F5F7F4F8F4F9F4F89
S113030016C0882311F096E911C0772321F09EE8E6
S1130310872F762F05C0662371F096E8862F70E04C
S113032060E02AF09A95660F771F881FDAF7880F26
S11303309695879597F9089597F99F6780E870E0F7
S113034060E008959FEF80EC089500240A94161647
S1130350170618060906089500240A9412161306AF
S1130360140605060895092E0394000C11F488233D
S113037052F0BB0F40F4BF2B11F460FF04C06F5F59
S11303807F4F8F4F9F4F089557FD9058440F551F2F
S113039059F05F3F71F04795880F97FB991F61F003
S11303A09F3F79F087950895121613061406551F7A
S11303B0F2CF4695F1DF08C0161617061806991FE6
S11303C0F1CF86957105610508940895E894BB27DB
S11303D066277727CB0197F908950E9400020C94B1
S11303E0B3010E94A50138F00E94AC0120F09523CE
S11303F011F00C949C010C94A20111240C94E701BB
S11304000E94C40170F3959FC1F3950F50E0551FEE
S1130410629FF001729FBB27F00DB11D639FAA2755
S1130420F00DB11DAA1F649F6627B00DA11D661FA4
S1130430829F2227B00DA11D621F739FB00DA11DC5
S1130440621F839FA00D611D221F749F3327A00D7F
S1130450611D231F849F600D211D822F762F6A2F1B
S113046011249F5750409AF0F1F088234AF0EE0F80
S1130470FF1FBB1F661F771F881F91505040A9F7AD
S11304809E3F510580F00C949C010C94E7015F3F62
S1130490E4F3983ED4F3869577956795B795F795E9
S11304A0E7959F5FC1F7FE2B880F911D9695879561
S10B04B097F90895F894FFCFB9
S9030000FC
